S01900006D6F683030385F6C6162345F70617274322E7372656325
S113000045C0000053C0000051C000004FC00000B4
S11300104DC000004BC0000049C0000047C00000B4
S113002045C0000043C0000041C000003FC00000C4
S11300303DC000003BC0000039C0000037C00000D4
S113004035C0000033C0000031C000002FC00000E4
S11300502DC000002BC0000029C0000027C00000F4
S113006025C0000023C0000021C000001FC0000004
S11300701DC000001BC0000019C0000017C0000014
S113008015C0000013C0000011C0000011241FBEE1
S1130090CFEFD0E4DEBFCDBF21E0A0E0B1E001C0EE
S11300A01D92A330B207E1F764D073C0A9CF809149
S11300B00201823031F128F4882341F0813069F063
S11300C040C0833061F18430C1F13BC087E080934C
S11300D0010181E080930201089580910001813043
S11300E021F482E0809302013AC0823021F483E05B
S11300F08093020139C08330D9F584E080930201F2
S11301002BC080910001833021F484E080930201AC
S113011023C0813021F181E0809302010895809110
S11301200001833021F484E08093020115C0823001
S1130130D9F081E080930201089581E08093020167
S113014008951092020108958F5F8093010108952C
S113015081508093010108951092010108958091C6
S11301600101893089F70895809101018111F0CF4F
S1130170089511B88FEF82B987B918B810920201A7
S113018080B183708093000192DF8091010188B96E
S1090190F7CFF894FFCF45
S9030000FC
